{
  "_format": "hh-sol-artifact-1",
  "contractName": "Ido",
  "sourceName": "contracts/Ido.sol",
  "abi": [
    {
      "inputs": [],
      "stateMutability": "nonpayable",
      "type": "constructor"
    },
    {
      "anonymous": false,
      "inputs": [
        {
          "indexed": false,
          "internalType": "address",
          "name": "previousAdmin",
          "type": "address"
        },
        {
          "indexed": false,
          "internalType": "address",
          "name": "newAdmin",
          "type": "address"
        }
      ],
      "name": "AdminChanged",
      "type": "event"
    },
    {
      "anonymous": false,
      "inputs": [
        {
          "indexed": true,
          "internalType": "address",
          "name": "beacon",
          "type": "address"
        }
      ],
      "name": "BeaconUpgraded",
      "type": "event"
    },
    {
      "anonymous": false,
      "inputs": [
        {
          "indexed": false,
          "internalType": "address",
          "name": "caller",
          "type": "address"
        },
        {
          "indexed": false,
          "internalType": "uint256",
          "name": "idoNum",
          "type": "uint256"
        },
        {
          "indexed": false,
          "internalType": "uint256",
          "name": "idoTokenNum",
          "type": "uint256"
        }
      ],
      "name": "BuyIdo",
      "type": "event"
    },
    {
      "anonymous": false,
      "inputs": [
        {
          "indexed": false,
          "internalType": "uint8",
          "name": "version",
          "type": "uint8"
        }
      ],
      "name": "Initialized",
      "type": "event"
    },
    {
      "anonymous": false,
      "inputs": [
        {
          "indexed": true,
          "internalType": "bytes32",
          "name": "role",
          "type": "bytes32"
        },
        {
          "indexed": true,
          "internalType": "bytes32",
          "name": "previousAdminRole",
          "type": "bytes32"
        },
        {
          "indexed": true,
          "internalType": "bytes32",
          "name": "newAdminRole",
          "type": "bytes32"
        }
      ],
      "name": "RoleAdminChanged",
      "type": "event"
    },
    {
      "anonymous": false,
      "inputs": [
        {
          "indexed": true,
          "internalType": "bytes32",
          "name": "role",
          "type": "bytes32"
        },
        {
          "indexed": true,
          "internalType": "address",
          "name": "account",
          "type": "address"
        },
        {
          "indexed": true,
          "internalType": "address",
          "name": "sender",
          "type": "address"
        }
      ],
      "name": "RoleGranted",
      "type": "event"
    },
    {
      "anonymous": false,
      "inputs": [
        {
          "indexed": true,
          "internalType": "bytes32",
          "name": "role",
          "type": "bytes32"
        },
        {
          "indexed": true,
          "internalType": "address",
          "name": "account",
          "type": "address"
        },
        {
          "indexed": true,
          "internalType": "address",
          "name": "sender",
          "type": "address"
        }
      ],
      "name": "RoleRevoked",
      "type": "event"
    },
    {
      "anonymous": false,
      "inputs": [
        {
          "indexed": true,
          "internalType": "address",
          "name": "implementation",
          "type": "address"
        }
      ],
      "name": "Upgraded",
      "type": "event"
    },
    {
      "anonymous": false,
      "inputs": [
        {
          "indexed": true,
          "internalType": "address",
          "name": "caller",
          "type": "address"
        },
        {
          "indexed": true,
          "internalType": "address",
          "name": "token",
          "type": "address"
        },
        {
          "indexed": false,
          "internalType": "uint256",
          "name": "amount",
          "type": "uint256"
        },
        {
          "indexed": false,
          "internalType": "uint256",
          "name": "timestamp",
          "type": "uint256"
        },
        {
          "indexed": false,
          "internalType": "uint256",
          "name": "order",
          "type": "uint256"
        }
      ],
      "name": "WithdrawReward",
      "type": "event"
    },
    {
      "inputs": [],
      "name": "DEFAULT_ADMIN_ROLE",
      "outputs": [
        {
          "internalType": "bytes32",
          "name": "",
          "type": "bytes32"
        }
      ],
      "stateMutability": "view",
      "type": "function"
    },
    {
      "inputs": [],
      "name": "DOMAIN_SEPARATOR",
      "outputs": [
        {
          "internalType": "bytes32",
          "name": "",
          "type": "bytes32"
        }
      ],
      "stateMutability": "view",
      "type": "function"
    },
    {
      "inputs": [],
      "name": "MANAGE_ROLE",
      "outputs": [
        {
          "internalType": "bytes32",
          "name": "",
          "type": "bytes32"
        }
      ],
      "stateMutability": "view",
      "type": "function"
    },
    {
      "inputs": [
        {
          "internalType": "address",
          "name": "token",
          "type": "address"
        }
      ],
      "name": "balance",
      "outputs": [
        {
          "internalType": "uint256",
          "name": "",
          "type": "uint256"
        }
      ],
      "stateMutability": "view",
      "type": "function"
    },
    {
      "inputs": [
        {
          "internalType": "bytes32",
          "name": "role",
          "type": "bytes32"
        },
        {
          "internalType": "address[]",
          "name": "accounts",
          "type": "address[]"
        }
      ],
      "name": "batchGrantRole",
      "outputs": [],
      "stateMutability": "nonpayable",
      "type": "function"
    },
    {
      "inputs": [
        {
          "internalType": "bytes32",
          "name": "role",
          "type": "bytes32"
        },
        {
          "internalType": "address[]",
          "name": "accounts",
          "type": "address[]"
        }
      ],
      "name": "batchRevokeRole",
      "outputs": [],
      "stateMutability": "nonpayable",
      "type": "function"
    },
    {
      "inputs": [
        {
          "internalType": "uint256",
          "name": "idoNum",
          "type": "uint256"
        }
      ],
      "name": "buyIdo",
      "outputs": [],
      "stateMutability": "nonpayable",
      "type": "function"
    },
    {
      "inputs": [],
      "name": "currentIdoTokenNum",
      "outputs": [
        {
          "internalType": "uint256",
          "name": "",
          "type": "uint256"
        }
      ],
      "stateMutability": "view",
      "type": "function"
    },
    {
      "inputs": [
        {
          "internalType": "bytes32",
          "name": "role",
          "type": "bytes32"
        }
      ],
      "name": "getRoleAdmin",
      "outputs": [
        {
          "internalType": "bytes32",
          "name": "",
          "type": "bytes32"
        }
      ],
      "stateMutability": "view",
      "type": "function"
    },
    {
      "inputs": [
        {
          "internalType": "bytes32",
          "name": "role",
          "type": "bytes32"
        },
        {
          "internalType": "uint256",
          "name": "index",
          "type": "uint256"
        }
      ],
      "name": "getRoleMember",
      "outputs": [
        {
          "internalType": "address",
          "name": "",
          "type": "address"
        }
      ],
      "stateMutability": "view",
      "type": "function"
    },
    {
      "inputs": [
        {
          "internalType": "bytes32",
          "name": "role",
          "type": "bytes32"
        }
      ],
      "name": "getRoleMemberCount",
      "outputs": [
        {
          "internalType": "uint256",
          "name": "",
          "type": "uint256"
        }
      ],
      "stateMutability": "view",
      "type": "function"
    },
    {
      "inputs": [
        {
          "internalType": "bytes32",
          "name": "role",
          "type": "bytes32"
        },
        {
          "internalType": "address",
          "name": "account",
          "type": "address"
        }
      ],
      "name": "grantRole",
      "outputs": [],
      "stateMutability": "nonpayable",
      "type": "function"
    },
    {
      "inputs": [
        {
          "internalType": "bytes32",
          "name": "role",
          "type": "bytes32"
        },
        {
          "internalType": "address",
          "name": "account",
          "type": "address"
        }
      ],
      "name": "hasRole",
      "outputs": [
        {
          "internalType": "bool",
          "name": "",
          "type": "bool"
        }
      ],
      "stateMutability": "view",
      "type": "function"
    },
    {
      "inputs": [],
      "name": "idoPricePeerToken",
      "outputs": [
        {
          "internalType": "uint256",
          "name": "",
          "type": "uint256"
        }
      ],
      "stateMutability": "view",
      "type": "function"
    },
    {
      "inputs": [
        {
          "internalType": "contract IERC20Upgradeable",
          "name": "_usdt",
          "type": "address"
        },
        {
          "internalType": "address",
          "name": "_signer",
          "type": "address"
        }
      ],
      "name": "initialize",
      "outputs": [],
      "stateMutability": "nonpayable",
      "type": "function"
    },
    {
      "inputs": [],
      "name": "maxBuyIdo",
      "outputs": [
        {
          "internalType": "uint256",
          "name": "",
          "type": "uint256"
        }
      ],
      "stateMutability": "view",
      "type": "function"
    },
    {
      "inputs": [],
      "name": "maxIdoTokenNum",
      "outputs": [
        {
          "internalType": "uint256",
          "name": "",
          "type": "uint256"
        }
      ],
      "stateMutability": "view",
      "type": "function"
    },
    {
      "inputs": [],
      "name": "minBuyIdo",
      "outputs": [
        {
          "internalType": "uint256",
          "name": "",
          "type": "uint256"
        }
      ],
      "stateMutability": "view",
      "type": "function"
    },
    {
      "inputs": [
        {
          "internalType": "address",
          "name": "",
          "type": "address"
        }
      ],
      "name": "nonces",
      "outputs": [
        {
          "internalType": "uint256",
          "name": "",
          "type": "uint256"
        }
      ],
      "stateMutability": "view",
      "type": "function"
    },
    {
      "inputs": [],
      "name": "proxiableUUID",
      "outputs": [
        {
          "internalType": "bytes32",
          "name": "",
          "type": "bytes32"
        }
      ],
      "stateMutability": "view",
      "type": "function"
    },
    {
      "inputs": [
        {
          "internalType": "bytes32",
          "name": "role",
          "type": "bytes32"
        }
      ],
      "name": "queryRoles",
      "outputs": [
        {
          "internalType": "address[]",
          "name": "",
          "type": "address[]"
        }
      ],
      "stateMutability": "view",
      "type": "function"
    },
    {
      "inputs": [
        {
          "internalType": "bytes32",
          "name": "role",
          "type": "bytes32"
        },
        {
          "internalType": "address",
          "name": "account",
          "type": "address"
        }
      ],
      "name": "renounceRole",
      "outputs": [],
      "stateMutability": "nonpayable",
      "type": "function"
    },
    {
      "inputs": [
        {
          "internalType": "bytes32",
          "name": "role",
          "type": "bytes32"
        },
        {
          "internalType": "address",
          "name": "account",
          "type": "address"
        }
      ],
      "name": "revokeRole",
      "outputs": [],
      "stateMutability": "nonpayable",
      "type": "function"
    },
    {
      "inputs": [],
      "name": "signer",
      "outputs": [
        {
          "internalType": "address",
          "name": "",
          "type": "address"
        }
      ],
      "stateMutability": "view",
      "type": "function"
    },
    {
      "inputs": [
        {
          "internalType": "bytes4",
          "name": "interfaceId",
          "type": "bytes4"
        }
      ],
      "name": "supportsInterface",
      "outputs": [
        {
          "internalType": "bool",
          "name": "",
          "type": "bool"
        }
      ],
      "stateMutability": "view",
      "type": "function"
    },
    {
      "inputs": [
        {
          "internalType": "address",
          "name": "newImplementation",
          "type": "address"
        }
      ],
      "name": "upgradeTo",
      "outputs": [],
      "stateMutability": "nonpayable",
      "type": "function"
    },
    {
      "inputs": [
        {
          "internalType": "address",
          "name": "newImplementation",
          "type": "address"
        },
        {
          "internalType": "bytes",
          "name": "data",
          "type": "bytes"
        }
      ],
      "name": "upgradeToAndCall",
      "outputs": [],
      "stateMutability": "payable",
      "type": "function"
    },
    {
      "inputs": [],
      "name": "usdt",
      "outputs": [
        {
          "internalType": "contract IERC20Upgradeable",
          "name": "",
          "type": "address"
        }
      ],
      "stateMutability": "view",
      "type": "function"
    },
    {
      "inputs": [
        {
          "internalType": "address",
          "name": "",
          "type": "address"
        }
      ],
      "name": "userInfos",
      "outputs": [
        {
          "internalType": "address",
          "name": "user",
          "type": "address"
        },
        {
          "internalType": "uint256",
          "name": "idoNum",
          "type": "uint256"
        },
        {
          "internalType": "uint256",
          "name": "tokenNum",
          "type": "uint256"
        },
        {
          "internalType": "uint256",
          "name": "withdrawNum",
          "type": "uint256"
        }
      ],
      "stateMutability": "view",
      "type": "function"
    },
    {
      "inputs": [
        {
          "internalType": "address",
          "name": "to",
          "type": "address"
        },
        {
          "internalType": "uint256",
          "name": "amount",
          "type": "uint256"
        }
      ],
      "name": "withdrawBNB",
      "outputs": [],
      "stateMutability": "nonpayable",
      "type": "function"
    },
    {
      "inputs": [
        {
          "internalType": "address",
          "name": "token",
          "type": "address"
        },
        {
          "internalType": "address",
          "name": "to",
          "type": "address"
        },
        {
          "internalType": "uint256",
          "name": "amount",
          "type": "uint256"
        }
      ],
      "name": "withdrawErc20",
      "outputs": [],
      "stateMutability": "nonpayable",
      "type": "function"
    },
    {
      "inputs": [
        {
          "internalType": "bytes",
          "name": "data",
          "type": "bytes"
        }
      ],
      "name": "withdrawReward",
      "outputs": [],
      "stateMutability": "nonpayable",
      "type": "function"
    },
    {
      "stateMutability": "payable",
      "type": "receive"
    }
  ],
  "bytecode": "0x60a0604052306080523480156200001557600080fd5b506200002062000026565b620000e7565b600054610100900460ff1615620000935760405162461bcd60e51b815260206004820152602760248201527f496e697469616c697a61626c653a20636f6e747261637420697320696e697469604482015266616c697a696e6760c81b606482015260840160405180910390fd5b60005460ff90811614620000e5576000805460ff191660ff9081179091556040519081527f7f26b83ff96e1f2b6a682f133852f6798a09c465da95921460cefb38474024989060200160405180910390a15b565b608051612a626200011f60003960008181610a4401528181610a8401528181610e0201528181610e420152610ed10152612a626000f3fe6080604052600436106101e75760003560e01c806360a4b76a1161010257806391d1485411610095578063d547741f11610064578063d547741f146105ef578063e3d670d71461060f578063fc000ef31461062f578063fd7f4a221461064657600080fd5b806391d148541461057a578063a217fddf1461059a578063a97af1f2146105af578063ca15c873146105cf57600080fd5b80636f39feec116100d15780636f39feec146104f55780637a9cdd6f146105155780637ecebe001461052c5780639010d07c1461055a57600080fd5b806360a4b76a1461046f578063620bb3ca146104915780636763ccbd146104be57806367bffea2146104de57600080fd5b806336568abe1161017a578063485cc95511610149578063485cc955146104105780634f1ef2861461043057806352d1902d146104435780635fabe1181461045857600080fd5b806336568abe146103395780633659cfe61461035957806343b0215f1461037957806346b5cb59146103f057600080fd5b806325c63fde116101b657806325c63fde146102c15780632f2ff15d146102e15780632f48ab7d146103015780633644e5151461032257600080fd5b806301ffc9a7146101f35780631593dee114610228578063238ac9331461024a578063248a9ca31461028357600080fd5b366101ee57005b600080fd5b3480156101ff57600080fd5b5061021361020e3660046122ae565b61065d565b60405190151581526020015b60405180910390f35b34801561023457600080fd5b506102486102433660046122ed565b610688565b005b34801561025657600080fd5b506101675461026b906001600160a01b031681565b6040516001600160a01b03909116815260200161021f565b34801561028f57600080fd5b506102b361029e36600461232e565b60009081526065602052604090206001015490565b60405190815260200161021f565b3480156102cd57600080fd5b506102486102dc36600461232e565b610772565b3480156102ed57600080fd5b506102486102fc366004612347565b610992565b34801561030d57600080fd5b5061015f5461026b906001600160a01b031681565b34801561032e57600080fd5b506102b36101665481565b34801561034557600080fd5b50610248610354366004612347565b6109bc565b34801561036557600080fd5b50610248610374366004612377565b610a3a565b34801561038557600080fd5b506103c6610394366004612377565b6101656020526000908152604090208054600182015460028301546003909301546001600160a01b0390921692909184565b604080516001600160a01b039095168552602085019390935291830152606082015260800161021f565b3480156103fc57600080fd5b5061024861040b366004612394565b610b16565b34801561041c57600080fd5b5061024861042b366004612413565b610b7e565b61024861043e366004612506565b610df8565b34801561044f57600080fd5b506102b3610ec4565b34801561046457600080fd5b506102b36101625481565b34801561047b57600080fd5b506102b3600080516020612a0d83398151915281565b34801561049d57600080fd5b506104b16104ac36600461232e565b610f77565b60405161021f9190612556565b3480156104ca57600080fd5b506102486104d93660046125a3565b611026565b3480156104ea57600080fd5b506102b36101635481565b34801561050157600080fd5b50610248610510366004612394565b611411565b34801561052157600080fd5b506102b36101605481565b34801561053857600080fd5b506102b3610547366004612377565b6101686020526000908152604090205481565b34801561056657600080fd5b5061026b6105753660046125d8565b611479565b34801561058657600080fd5b50610213610595366004612347565b611498565b3480156105a657600080fd5b506102b3600081565b3480156105bb57600080fd5b506102486105ca3660046125fa565b6114c3565b3480156105db57600080fd5b506102b36105ea36600461232e565b611558565b3480156105fb57600080fd5b5061024861060a366004612347565b61156f565b34801561061b57600080fd5b506102b361062a366004612377565b611594565b34801561063b57600080fd5b506102b36101615481565b34801561065257600080fd5b506102b36101645481565b60006001600160e01b03198216635a05180f60e01b1480610682575061068282611613565b92915050565b600080516020612a0d8339815191526106a081611648565b6040516370a0823160e01b81523060048201526000906001600160a01b038616906370a0823190602401602060405180830381865afa1580156106e7573d6000803e3d6000fd5b505050506040513d601f19601f8201168201806040525081019061070b9190612626565b9050828110156107575760405162461bcd60e51b815260206004820152601260248201527111549493d48e925394d551919250d251539560721b60448201526064015b60405180910390fd5b61076b6001600160a01b0386168585611652565b5050505050565b61077a6116b5565b6101605461016154106107cf5760405162461bcd60e51b815260206004820152601960248201527f49646f3a206578636565642069646f20746f6b656e206e756d00000000000000604482015260640161074e565b6101645481101580156107e55750610163548111155b6108265760405162461bcd60e51b815260206004820152601260248201527124b2379d1034b23790373ab69032b93937b960711b604482015260640161074e565b3360009081526101656020526040902060018101541561087f5760405162461bcd60e51b815260206004820152601460248201527349646f3a20616c7265616479206275792069646f60601b604482015260640161074e565b600061016254836108909190612655565b6108a290670de0b6b3a7640000612677565b90506101605461016154826108b7919061268e565b11156108f257610160546108cb90806126a1565b9050670de0b6b3a764000061016254826108e59190612677565b6108ef9190612655565b92505b61015f5461090b906001600160a01b031633308661170e565b80610161600082825461091e919061268e565b909155505081546001600160a01b0319163390811783556001830184905560028301829055604080519182526020820185905281018290527f684d1dd1ada0717e018a281d8fcea125f569ffe2c8cdf7b7f834784dea895b8f9060600160405180910390a1505061098f600160c955565b50565b6000828152606560205260409020600101546109ad81611648565b6109b78383611753565b505050565b6001600160a01b0381163314610a2c5760405162461bcd60e51b815260206004820152602f60248201527f416363657373436f6e74726f6c3a2063616e206f6e6c792072656e6f756e636560448201526e103937b632b9903337b91039b2b63360891b606482015260840161074e565b610a368282611775565b5050565b6001600160a01b037f0000000000000000000000000000000000000000000000000000000000000000163003610a825760405162461bcd60e51b815260040161074e906126b4565b7f00000000000000000000000000000000000000000000000000000000000000006001600160a01b0316610acb6000805160206129c6833981519152546001600160a01b031690565b6001600160a01b031614610af15760405162461bcd60e51b815260040161074e90612700565b610afa81611797565b6040805160008082526020820190925261098f918391906117af565b600083815260656020526040902060010154610b3181611648565b60005b8281101561076b57610b6c85858584818110610b5257610b5261274c565b9050602002016020810190610b679190612377565b611753565b80610b7681612762565b915050610b34565b600054610100900460ff1615808015610b9e5750600054600160ff909116105b80610bb85750303b158015610bb8575060005460ff166001145b610c1b5760405162461bcd60e51b815260206004820152602e60248201527f496e697469616c697a61626c653a20636f6e747261637420697320616c72656160448201526d191e481a5b9a5d1a585b1a5e995960921b606482015260840161074e565b6000805460ff191660011790558015610c3e576000805461ff0019166101001790555b610c4661191a565b610c4e611943565b610c5661191a565b610c61600033611753565b610c79600080516020612a0d83398151915233611753565b61015f80546001600160a01b038581166001600160a01b0319928316179092556a18d0bf423c03d8de00000061016055662386f26fc1000061016255683635c9adc5dea000006101635568056bc75e2d6310000061016455610167805492851692909116919091179055604080518082018252600381526249646f60e81b6020918201528151808301835260018152603160f81b9082015281517f8b73c3c69bb8fe3d512ecc4cf759cc79239f7b179b0ffacaa9a75d522b39400f818301527f6743733b8bb2c153b9380c31d095c2087563d2ed4706ec0d7410cf1d459a55f1818401527fc89efdaa54c0f20c7adf612882df0950f5a951637e0307cdcb4c672f298b8bc660608201524660808201523060a0808301919091528351808303909101815260c090910190925281519101206101665580156109b7576000805461ff0019169055604051600181527f7f26b83ff96e1f2b6a682f133852f6798a09c465da95921460cefb38474024989060200160405180910390a1505050565b6001600160a01b037f0000000000000000000000000000000000000000000000000000000000000000163003610e405760405162461bcd60e51b815260040161074e906126b4565b7f00000000000000000000000000000000000000000000000000000000000000006001600160a01b0316610e896000805160206129c6833981519152546001600160a01b031690565b6001600160a01b031614610eaf5760405162461bcd60e51b815260040161074e90612700565b610eb882611797565b610a36828260016117af565b6000306001600160a01b037f00000000000000000000000000000000000000000000000000000000000000001614610f645760405162461bcd60e51b815260206004820152603860248201527f555550535570677261646561626c653a206d757374206e6f742062652063616c60448201527f6c6564207468726f7567682064656c656761746563616c6c0000000000000000606482015260840161074e565b506000805160206129c683398151915290565b60606000610f8483611558565b905060008167ffffffffffffffff811115610fa157610fa1612441565b604051908082528060200260200182016040528015610fca578160200160208202803683370190505b50905060005b8281101561101e57610fe28582611479565b828281518110610ff457610ff461274c565b6001600160a01b03909216602092830291909101909101528061101681612762565b915050610fd0565b509392505050565b61102e6116b5565b60008060008060008060008780602001905181019061104d919061279f565b9650965096509650965096509650336001600160a01b0316876001600160a01b0316146110b05760405162461bcd60e51b815260206004820152601160248201527024b2379d1024a72b20a624a22faaa9a2a960791b604482015260640161074e565b336000908152610168602052604090205483146111045760405162461bcd60e51b815260206004820152601260248201527149646f3a20494e56414c49445f4e4f4e434560701b604482015260640161074e565b814211156111445760405162461bcd60e51b815260206004820152600d60248201526c12591bce88151253514813d555609a1b604482015260640161074e565b600080600061115284611972565b9250925092506000610166546040516020016111dd907f5065726d6974286164647265737320757365722c6164647265737320746f6b6581527f6e2c75696e74323536206f726465722c75696e7432353620616d6f756e742c7560208201527f696e74323536206e6f6e63652c75696e7432353620646561646c696e652900006040820152605e0190565b60408051808303601f190181528282528051602091820120818401526001600160a01b038f8116848401528e166060840152608083018d905260a083018c905260c083018b905260e08084018b9052825180850390910181526101008401909252815191012061190160f01b6101208301526101228201929092526101428101919091526101620160408051601f1981840301815282825280516020918201206000845290830180835281905260ff8716918301919091526060820185905260808201849052915060019060a0016020604051602081039080840390855afa1580156112cd573d6000803e3d6000fd5b5050604051601f190151610167546001600160a01b03908116911614905061132e5760405162461bcd60e51b81526020600482015260146024820152731a591bce881253959053125117d49154555154d560621b604482015260640161074e565b3360009081526101686020526040812080549161134a83612762565b9190505550876113598b611594565b101561139b5760405162461bcd60e51b815260206004820152601160248201527012591bce88125394d551919250d2515395607a1b604482015260640161074e565b6113af6001600160a01b038b168c8a611652565b604080518981524260208201529081018a90526001600160a01b038b169033907fbb873e1f721a078dc6666b560c8f8a58540d7f2482138c9ecb84a8f7fa7cf73b9060600160405180910390a3505050505050505050505061098f600160c955565b60008381526065602052604090206001015461142c81611648565b60005b8281101561076b576114678585858481811061144d5761144d61274c565b90506020020160208101906114629190612377565b611775565b8061147181612762565b91505061142f565b600082815260976020526040812061149190836119e4565b9392505050565b60009182526065602090815260408084206001600160a01b0393909316845291905290205460ff1690565b600080516020612a0d8339815191526114db81611648565b3031828110156115225760405162461bcd60e51b815260206004820152601260248201527111549493d48e925394d551919250d251539560721b604482015260640161074e565b6040516001600160a01b0385169084156108fc029085906000818181858888f1935050505015801561076b573d6000803e3d6000fd5b6000818152609760205260408120610682906119f0565b60008281526065602052604090206001015461158a81611648565b6109b78383611775565b60006001600160a01b0382166115ab575047919050565b6040516370a0823160e01b81523060048201526001600160a01b038316906370a0823190602401602060405180830381865afa1580156115ef573d6000803e3d6000fd5b505050506040513d601f19601f820116820180604052508101906106829190612626565b60006001600160e01b03198216637965db0b60e01b148061068257506301ffc9a760e01b6001600160e01b0319831614610682565b61098f81336119fa565b6040516001600160a01b0383166024820152604481018290526109b790849063a9059cbb60e01b906064015b60408051601f198184030181529190526020810180516001600160e01b03166001600160e01b031990931692909217909152611a53565b600260c954036117075760405162461bcd60e51b815260206004820152601f60248201527f5265656e7472616e637947756172643a207265656e7472616e742063616c6c00604482015260640161074e565b600260c955565b6040516001600160a01b03808516602483015283166044820152606481018290526117469085906323b872dd60e01b9060840161167e565b50505050565b600160c955565b61175d8282611b28565b60008281526097602052604090206109b79082611bae565b61177f8282611bc3565b60008281526097602052604090206109b79082611c2a565b600080516020612a0d833981519152610a3681611648565b7f4910fdfa16fed3260ed0e7147f7cc6da11a60208b5b9406d12a635614ffd91435460ff16156117e2576109b783611c3f565b826001600160a01b03166352d1902d6040518163ffffffff1660e01b8152600401602060405180830381865afa92505050801561183c575060408051601f3d908101601f1916820190925261183991810190612626565b60015b61189f5760405162461bcd60e51b815260206004820152602e60248201527f45524331393637557067726164653a206e657720696d706c656d656e7461746960448201526d6f6e206973206e6f74205555505360901b606482015260840161074e565b6000805160206129c6833981519152811461190e5760405162461bcd60e51b815260206004820152602960248201527f45524331393637557067726164653a20756e737570706f727465642070726f786044820152681a58589b195555525160ba1b606482015260840161074e565b506109b7838383611cdb565b600054610100900460ff166119415760405162461bcd60e51b815260040161074e90612867565b565b600054610100900460ff1661196a5760405162461bcd60e51b815260040161074e90612867565b611941611d00565b600080600083516041146119c85760405162461bcd60e51b815260206004820152601a60248201527f4e6f7420496e76616c6964205369676e61747572652044617461000000000000604482015260640161074e565b5050506020810151604082015160609092015160001a92909190565b60006114918383611d27565b6000610682825490565b611a048282611498565b610a3657611a1181611d51565b611a1c836020611d63565b604051602001611a2d9291906128b2565b60408051601f198184030181529082905262461bcd60e51b825261074e91600401612927565b6000611aa8826040518060400160405280602081526020017f5361666545524332303a206c6f772d6c6576656c2063616c6c206661696c6564815250856001600160a01b0316611eff9092919063ffffffff16565b9050805160001480611ac9575080806020019051810190611ac9919061295a565b6109b75760405162461bcd60e51b815260206004820152602a60248201527f5361666545524332303a204552433230206f7065726174696f6e20646964206e6044820152691bdd081cdd58d8d9595960b21b606482015260840161074e565b611b328282611498565b610a365760008281526065602090815260408083206001600160a01b03851684529091529020805460ff19166001179055611b6a3390565b6001600160a01b0316816001600160a01b0316837f2f8788117e7eff1d82e926ec794901d17c78024a50270940304540a733656f0d60405160405180910390a45050565b6000611491836001600160a01b038416611f16565b611bcd8282611498565b15610a365760008281526065602090815260408083206001600160a01b0385168085529252808320805460ff1916905551339285917ff6391f5c32d9c69d2a47ea670b442974b53935d1edc7fd64eb21e047a839171b9190a45050565b6000611491836001600160a01b038416611f65565b6001600160a01b0381163b611cac5760405162461bcd60e51b815260206004820152602d60248201527f455243313936373a206e657720696d706c656d656e746174696f6e206973206e60448201526c1bdd08184818dbdb9d1c9858dd609a1b606482015260840161074e565b6000805160206129c683398151915280546001600160a01b0319166001600160a01b0392909216919091179055565b611ce483612058565b600082511180611cf15750805b156109b7576117468383612098565b600054610100900460ff1661174c5760405162461bcd60e51b815260040161074e90612867565b6000826000018281548110611d3e57611d3e61274c565b9060005260206000200154905092915050565b60606106826001600160a01b03831660145b60606000611d72836002612677565b611d7d90600261268e565b67ffffffffffffffff811115611d9557611d95612441565b6040519080825280601f01601f191660200182016040528015611dbf576020820181803683370190505b509050600360fc1b81600081518110611dda57611dda61274c565b60200101906001600160f81b031916908160001a905350600f60fb1b81600181518110611e0957611e0961274c565b60200101906001600160f81b031916908160001a9053506000611e2d846002612677565b611e3890600161268e565b90505b6001811115611eb0576f181899199a1a9b1b9c1cb0b131b232b360811b85600f1660108110611e6c57611e6c61274c565b1a60f81b828281518110611e8257611e8261274c565b60200101906001600160f81b031916908160001a90535060049490941c93611ea98161297c565b9050611e3b565b5083156114915760405162461bcd60e51b815260206004820181905260248201527f537472696e67733a20686578206c656e67746820696e73756666696369656e74604482015260640161074e565b6060611f0e84846000856120bd565b949350505050565b6000818152600183016020526040812054611f5d57508154600181810184556000848152602080822090930184905584548482528286019093526040902091909155610682565b506000610682565b6000818152600183016020526040812054801561204e576000611f896001836126a1565b8554909150600090611f9d906001906126a1565b9050818114612002576000866000018281548110611fbd57611fbd61274c565b9060005260206000200154905080876000018481548110611fe057611fe061274c565b6000918252602080832090910192909255918252600188019052604090208390555b855486908061201357612013612993565b600190038181906000526020600020016000905590558560010160008681526020019081526020016000206000905560019350505050610682565b6000915050610682565b61206181611c3f565b6040516001600160a01b038216907fbc7cd75a20ee27fd9adebab32041f755214dbc6bffa90cc0225b39da2e5c2d3b90600090a250565b606061149183836040518060600160405280602781526020016129e660279139612198565b60608247101561211e5760405162461bcd60e51b815260206004820152602660248201527f416464726573733a20696e73756666696369656e742062616c616e636520666f6044820152651c8818d85b1b60d21b606482015260840161074e565b600080866001600160a01b0316858760405161213a91906129a9565b60006040518083038185875af1925050503d8060008114612177576040519150601f19603f3d011682016040523d82523d6000602084013e61217c565b606091505b509150915061218d87838387612210565b979650505050505050565b6060600080856001600160a01b0316856040516121b591906129a9565b600060405180830381855af49150503d80600081146121f0576040519150601f19603f3d011682016040523d82523d6000602084013e6121f5565b606091505b509150915061220686838387612210565b9695505050505050565b6060831561227f578251600003612278576001600160a01b0385163b6122785760405162461bcd60e51b815260206004820152601d60248201527f416464726573733a2063616c6c20746f206e6f6e2d636f6e7472616374000000604482015260640161074e565b5081611f0e565b611f0e83838151156122945781518083602001fd5b8060405162461bcd60e51b815260040161074e9190612927565b6000602082840312156122c057600080fd5b81356001600160e01b03198116811461149157600080fd5b6001600160a01b038116811461098f57600080fd5b60008060006060848603121561230257600080fd5b833561230d816122d8565b9250602084013561231d816122d8565b929592945050506040919091013590565b60006020828403121561234057600080fd5b5035919050565b6000806040838503121561235a57600080fd5b82359150602083013561236c816122d8565b809150509250929050565b60006020828403121561238957600080fd5b8135611491816122d8565b6000806000604084860312156123a957600080fd5b83359250602084013567ffffffffffffffff808211156123c857600080fd5b818601915086601f8301126123dc57600080fd5b8135818111156123eb57600080fd5b8760208260051b850101111561240057600080fd5b6020830194508093505050509250925092565b6000806040838503121561242657600080fd5b8235612431816122d8565b9150602083013561236c816122d8565b634e487b7160e01b600052604160045260246000fd5b604051601f8201601f1916810167ffffffffffffffff8111828210171561248057612480612441565b604052919050565b600067ffffffffffffffff8211156124a2576124a2612441565b50601f01601f191660200190565b600082601f8301126124c157600080fd5b81356124d46124cf82612488565b612457565b8181528460208386010111156124e957600080fd5b816020850160208301376000918101602001919091529392505050565b6000806040838503121561251957600080fd5b8235612524816122d8565b9150602083013567ffffffffffffffff81111561254057600080fd5b61254c858286016124b0565b9150509250929050565b6020808252825182820181905260009190848201906040850190845b818110156125975783516001600160a01b031683529284019291840191600101612572565b50909695505050505050565b6000602082840312156125b557600080fd5b813567ffffffffffffffff8111156125cc57600080fd5b611f0e848285016124b0565b600080604083850312156125eb57600080fd5b50508035926020909101359150565b6000806040838503121561260d57600080fd5b8235612618816122d8565b946020939093013593505050565b60006020828403121561263857600080fd5b5051919050565b634e487b7160e01b600052601160045260246000fd5b60008261267257634e487b7160e01b600052601260045260246000fd5b500490565b80820281158282048414176106825761068261263f565b808201808211156106825761068261263f565b818103818111156106825761068261263f565b6020808252602c908201527f46756e6374696f6e206d7573742062652063616c6c6564207468726f7567682060408201526b19195b1959d85d1958d85b1b60a21b606082015260800190565b6020808252602c908201527f46756e6374696f6e206d7573742062652063616c6c6564207468726f7567682060408201526b6163746976652070726f787960a01b606082015260800190565b634e487b7160e01b600052603260045260246000fd5b6000600182016127745761277461263f565b5060010190565b60005b8381101561279657818101518382015260200161277e565b50506000910152565b600080600080600080600060e0888a0312156127ba57600080fd5b87516127c5816122d8565b60208901519097506127d6816122d8565b8096505060408801519450606088015193506080880151925060a0880151915060c088015167ffffffffffffffff81111561281057600080fd5b8801601f81018a1361282157600080fd5b805161282f6124cf82612488565b8181528b602083850101111561284457600080fd5b61285582602083016020860161277b565b80935050505092959891949750929550565b6020808252602b908201527f496e697469616c697a61626c653a20636f6e7472616374206973206e6f74206960408201526a6e697469616c697a696e6760a81b606082015260800190565b7f416363657373436f6e74726f6c3a206163636f756e74200000000000000000008152600083516128ea81601785016020880161277b565b7001034b99036b4b9b9b4b733903937b6329607d1b601791840191820152835161291b81602884016020880161277b565b01602801949350505050565b602081526000825180602084015261294681604085016020870161277b565b601f01601f19169190910160400192915050565b60006020828403121561296c57600080fd5b8151801515811461149157600080fd5b60008161298b5761298b61263f565b506000190190565b634e487b7160e01b600052603160045260246000fd5b600082516129bb81846020870161277b565b919091019291505056fe360894a13ba1a3210667c828492db98dca3e2076cc3735a920a3ca505d382bbc416464726573733a206c6f772d6c6576656c2064656c65676174652063616c6c206661696c6564a076a07f65bcd51bcb15a0f01a65bc18f2d922acb81bcfd8af4caf5adb557091a2646970667358221220eb4dc17a16616a9bb9bcdc95350c63fba586f4a72f12452bd0e4af0ac745886464736f6c63430008110033",
  "linkReferences": {},
  "deployedLinkReferences": {}
}